{
  "_format": "hh-sol-artifact-1",
  "contractName": "voting",
  "sourceName": "contracts/voting.sol",
  "abi": [
    {
      "inputs": [
        {
          "internalType": "string[]",
          "name": "candidateNames",
          "type": "string[]"
        }
      ],
      "stateMutability": "nonpayable",
      "type": "constructor"
    },
    {
      "anonymous": false,
      "inputs": [
        {
          "indexed": true,
          "internalType": "address",
          "name": "voter",
          "type": "address"
        },
        {
          "indexed": false,
          "internalType": "string",
          "name": "candidate",
          "type": "string"
        }
      ],
      "name": "voteCasted",
      "type": "event"
    },
    {
      "inputs": [
        {
          "internalType": "uint256",
          "name": "",
          "type": "uint256"
        }
      ],
      "name": "candidates",
      "outputs": [
        {
          "internalType": "string",
          "name": "name",
          "type": "string"
        },
        {
          "internalType": "uint256",
          "name": "votes",
          "type": "uint256"
        }
      ],
      "stateMutability": "view",
      "type": "function"
    },
    {
      "inputs": [],
      "name": "getWinner",
      "outputs": [
        {
          "internalType": "string",
          "name": "",
          "type": "string"
        }
      ],
      "stateMutability": "view",
      "type": "function"
    },
    {
      "inputs": [
        {
          "internalType": "uint256",
          "name": "candidate_index",
          "type": "uint256"
        }
      ],
      "name": "vote",
      "outputs": [],
      "stateMutability": "nonpayable",
      "type": "function"
    }
  ],
  "bytecode": "0x608060405234801561001057600080fd5b5060405161127c38038061127c8339818101604052810190610032919061032a565b60005b81518110156100c8576001604051806040016040528084848151811061005e5761005d610373565b5b602002602001015181526020016000815250908060018154018082558091505060019003906000526020600020906002020160009091909190915060008201518160000190816100ae91906105c3565b506020820151816001015550508080600101915050610035565b5050610695565b6000604051905090565b600080fd5b600080fd5b600080fd5b6000601f19601f8301169050919050565b7f4e487b7100000000000000000000000000000000000000000000000000000000600052604160045260246000fd5b610131826100e8565b810181811067ffffffffffffffff821117156101505761014f6100f9565b5b80604052505050565b60006101636100cf565b905061016f8282610128565b919050565b600067ffffffffffffffff82111561018f5761018e6100f9565b5b602082029050602081019050919050565b600080fd5b600080fd5b600067ffffffffffffffff8211156101c5576101c46100f9565b5b6101ce826100e8565b9050602081019050919050565b60005b838110156101f95780820151818401526020810190506101de565b60008484015250505050565b6000610218610213846101aa565b610159565b905082815260208101848484011115610234576102336101a5565b5b61023f8482856101db565b509392505050565b600082601f83011261025c5761025b6100e3565b5b815161026c848260208601610205565b91505092915050565b600061028861028384610174565b610159565b905080838252602082019050602084028301858111156102ab576102aa6101a0565b5b835b818110156102f257805167ffffffffffffffff8111156102d0576102cf6100e3565b5b8086016102dd8982610247565b855260208501945050506020810190506102ad565b5050509392505050565b600082601f830112610311576103106100e3565b5b8151610321848260208601610275565b91505092915050565b6000602082840312156103405761033f6100d9565b5b600082015167ffffffffffffffff81111561035e5761035d6100de565b5b61036a848285016102fc565b91505092915050565b7f4e487b7100000000000000000000000000000000000000000000000000000000600052603260045260246000fd5b600081519050919050565b7f4e487b7100000000000000000000000000000000000000000000000000000000600052602260045260246000fd5b600060028204905060018216806103f457607f821691505b602082108103610407576104066103ad565b5b50919050565b60008190508160005260206000209050919050565b60006020601f8301049050919050565b600082821b905092915050565b60006008830261046f7fffffffffffffffffffffffffffffffffffffffffffffffffffffffffffffffff82610432565b6104798683610432565b95508019841693508086168417925050509392505050565b6000819050919050565b6000819050919050565b60006104c06104bb6104b684610491565b61049b565b610491565b9050919050565b6000819050919050565b6104da836104a5565b6104ee6104e6826104c7565b84845461043f565b825550505050565b600090565b6105036104f6565b61050e8184846104d1565b505050565b5b81811015610532576105276000826104fb565b600181019050610514565b5050565b601f821115610577576105488161040d565b61055184610422565b81016020851015610560578190505b61057461056c85610422565b830182610513565b50505b505050565b600082821c905092915050565b600061059a6000198460080261057c565b1980831691505092915050565b60006105b38383610589565b9150826002028217905092915050565b6105cc826103a2565b67ffffffffffffffff8111156105e5576105e46100f9565b5b6105ef82546103dc565b6105fa828285610536565b600060209050601f83116001811461062d576000841561061b578287015190505b61062585826105a7565b86555061068d565b601f19841661063b8661040d565b60005b828110156106635784890151825560018201915060208501945060208101905061063e565b86831015610680578489015161067c601f891682610589565b8355505b6001600288020188555050505b505050505050565b610bd8806106a46000396000f3fe608060405234801561001057600080fd5b50600436106100415760003560e01c80630121b93f146100465780633477ee2e146100625780638e7ea5b214610093575b600080fd5b610060600480360381019061005b919061080f565b6100b1565b005b61007c6004803603810190610077919061080f565b6102c4565b60405161008a9291906108db565b60405180910390f35b61009b610380565b6040516100a8919061090b565b60405180910390f35b6000803373ffffffffffffffffffffffffffffffffffffffff1673ffffffffffffffffffffffffffffffffffffffff16815260200190815260200160002060009054906101000a900460ff161561013d576040517f08c379a000000000000000000000000000000000000000000000000000000000815260040161013490610979565b60405180910390fd5b8060018054905011610184576040517f08c379a000000000000000000000000000000000000000000000000000000000815260040161017b906109e5565b60405180910390fd5b600180828154811061019957610198610a05565b5b906000526020600020906002020160010160008282546101b99190610a63565b925050819055506000600182815481106101d6576101d5610a05565b5b906000526020600020906002020160000180546101f290610ac6565b80601f016020809104026020016040519081016040528092919081815260200182805461021e90610ac6565b801561026b5780601f106102405761010080835404028352916020019161026b565b820191906000526020600020905b81548152906001019060200180831161024e57829003601f168201915b505050505090503373ffffffffffffffffffffffffffffffffffffffff167fc4213f902f9af637038c7b9977c0dd01600626773f325585fb072a810eee0cab826040516102b8919061090b565b60405180910390a25050565b600181815481106102d457600080fd5b90600052602060002090600202016000915090508060000180546102f790610ac6565b80601f016020809104026020016040519081016040528092919081815260200182805461032390610ac6565b80156103705780601f1061034557610100808354040283529160200191610370565b820191906000526020600020905b81548152906001019060200180831161035357829003601f168201915b5050505050908060010154905082565b606060008060405180602001604052806000815250905060005b600180549050811015610640576104936040518060400160405280600a81526020017f63616e6469646174653a00000000000000000000000000000000000000000000815250600183815481106103f4576103f3610a05565b5b9060005260206000209060020201600001805461041090610ac6565b80601f016020809104026020016040519081016040528092919081815260200182805461043c90610ac6565b80156104895780601f1061045e57610100808354040283529160200191610489565b820191906000526020600020905b81548152906001019060200180831161046c57829003601f168201915b5050505050610649565b61052d6040518060400160405280600581526020017f766f74653a000000000000000000000000000000000000000000000000000000815250600183815481106104e0576104df610a05565b5b9060005260206000209060020201600101546040518060400160405280600681526020017f0a2d2d2d2d0a00000000000000000000000000000000000000000000000000008152506106e5565b6001818154811061054157610540610a05565b5b906000526020600020906002020160010154831015610633576001818154811061056e5761056d610a05565b5b9060005260206000209060020201600001805461058a90610ac6565b80601f01602080910402602001604051908101604052809291908181526020018280546105b690610ac6565b80156106035780601f106105d857610100808354040283529160200191610603565b820191906000526020600020905b8154815290600101906020018083116105e657829003601f168201915b505050505091506001818154811061061e5761061d610a05565b5b90600052602060002090600202016001015492505b808060010191505061039a565b50809250505090565b6106e1828260405160240161065f929190610af7565b6040516020818303038152906040527f4b5c4277000000000000000000000000000000000000000000000000000000007bffffffffffffffffffffffffffffffffffffffffffffffffffffffff19166020820180517bffffffffffffffffffffffffffffffffffffffffffffffffffffffff8381831617835250505050610784565b5050565b61077f8383836040516024016106fd93929190610b2e565b6040516020818303038152906040527f5970e089000000000000000000000000000000000000000000000000000000007bffffffffffffffffffffffffffffffffffffffffffffffffffffffff19166020820180517bffffffffffffffffffffffffffffffffffffffffffffffffffffffff8381831617835250505050610784565b505050565b61079b8161079361079e6107bf565b63ffffffff16565b50565b60006a636f6e736f6c652e6c6f679050600080835160208501845afa505050565b6107ca819050919050565b6107d2610b73565b565b600080fd5b6000819050919050565b6107ec816107d9565b81146107f757600080fd5b50565b600081359050610809816107e3565b92915050565b600060208284031215610825576108246107d4565b5b6000610833848285016107fa565b91505092915050565b600081519050919050565b600082825260208201905092915050565b60005b8381101561087657808201518184015260208101905061085b565b60008484015250505050565b6000601f19601f8301169050919050565b600061089e8261083c565b6108a88185610847565b93506108b8818560208601610858565b6108c181610882565b840191505092915050565b6108d5816107d9565b82525050565b600060408201905081810360008301526108f58185610893565b905061090460208301846108cc565b9392505050565b600060208201905081810360008301526109258184610893565b905092915050565b7f796f75206861766520616c726561647920766f74656400000000000000000000600082015250565b6000610963601683610847565b915061096e8261092d565b602082019050919050565b6000602082019050818103600083015261099281610956565b9050919050565b7f7468657265206973206e6f2063616e64696461746520617420696e6465780000600082015250565b60006109cf601e83610847565b91506109da82610999565b602082019050919050565b600060208201905081810360008301526109fe816109c2565b9050919050565b7f4e487b7100000000000000000000000000000000000000000000000000000000600052603260045260246000fd5b7f4e487b7100000000000000000000000000000000000000000000000000000000600052601160045260246000fd5b6000610a6e826107d9565b9150610a79836107d9565b9250828201905080821115610a9157610a90610a34565b5b92915050565b7f4e487b7100000000000000000000000000000000000000000000000000000000600052602260045260246000fd5b60006002820490506001821680610ade57607f821691505b602082108103610af157610af0610a97565b5b50919050565b60006040820190508181036000830152610b118185610893565b90508181036020830152610b258184610893565b90509392505050565b60006060820190508181036000830152610b488186610893565b9050610b5760208301856108cc565b8181036040830152610b698184610893565b9050949350505050565b7f4e487b7100000000000000000000000000000000000000000000000000000000600052605160045260246000fdfea2646970667358221220beebb6c7286c173c831f9566a6c42b7c348357315eb2e9b71fe87ae25711328364736f6c634300081c0033",
  "linkReferences": {},
  "deployedLinkReferences": {}
}